:100000000C9463000C948B000C948B000C941006E1
:100010000C9410060C9410060C948B000C948B001E
:100020000C948B000C948B000C948B000C948B0024
:100030000C948B000C948B000C948B000C948B0014
:100040000C942D030C948B000C94AA010C94840145
:100050000C948B000C948B000C948B000C948B00F4
:100060000C948B000C948B000000000024002700EF
:100070002A0000000008000201000003040700003D
:1000800000000000000000000000250028002B00F8
:1000900000000000230026002900040404040404D6
:1000A0000404020202020202030303030303010227
:1000B00004081020408001020408102001020408F6
:1000C00010203A0C300C11241FBECFEFD8E0DEBF59
:1000D000CDBF11E0A0E0B1E0E6EEFAE102C005908C
:1000E0000D92A035B107D9F722E0A0E5B1E001C03B
:1000F0001D92A03CB207E1F710E0C2E6D0E004C0D8
:100100002197FE010E94390DC136D107C9F70E941F
:10011000C7080C94660D0C940000FC01918D828D33
:10012000981761F0828DDF01A80FB11D5D968C914B
:10013000928D9F5F9F73928F90E008958FEF9FEF56
:100140000895FC01918D828D981731F0828DE80F12
:10015000F11D858D90E008958FEF9FEF0895FC01CC
:10016000918D228D892F90E0805C9F4F821B910999
:100170008F73992708958CEA91E00E94AF0021E0E7
:10018000892B09F420E0822F0895FC01848DDF0182
:10019000A80FB11DA35ABF4F2C91848D90E00196FA
:1001A0008F739927848FA689B7892C93A089B189E9
:1001B0008C9180648C93938D848D981306C00288F3
:1001C000F389E02D80818F7D80830895EF92FF92E7
:1001D0000F931F93CF93DF93EC0181E0888F9B8D6A
:1001E0008C8D981305C0E889F989808185FD24C02C
:1001F000F62E0B8D10E00F5F1F4F0F731127E02EAF
:100200008C8DE8120CC00FB607FCFACFE889F9898B
:10021000808185FFF5CFCE010E94C500F1CF8B8D87
:10022000FE01E80FF11DE35AFF4FF0820B8FEA89C0
:10023000FB898081806207C0EE89FF896083E8893D
:10024000F98980818064808381E090E0DF91CF91A3
:100250001F910F91FF90EF900895CF93DF93EC01E2
:10026000888D8823C9F0EA89FB89808185FD05C0D6
:10027000A889B9898C9186FD0FC00FB607FCF5CF10
:10028000808185FFF2CFA889B9898C9185FFEDCF58
:10029000CE010E94C500E7CFDF91CF91089580E0A5
:1002A00090E0892B29F00E94BB0081110C94000082
:1002B0000895833081F028F4813099F08230A1F0E4
:1002C00008958730A9F08830B9F08430D1F4809156
:1002D00080008F7D03C0809180008F7780938000A5
:1002E000089584B58F7702C084B58F7D84BD08954D
:1002F0008091B0008F7703C08091B0008F7D809394
:10030000B00008950E943F0D1F920F920FB60F92FA
:1003100011242F933F934F935F936F937F938F930A
:100320009F93AF93BF93EF93FF938CEA91E00E946A
:10033000C500FF91EF91BF91AF919F918F917F91F8
:100340006F915F914F913F912F910F900FBE0F9042
:100350001F9018951F920F920FB60F9211242F9392
:100360008F939F93EF93FF93E091BC01F091BD01B8
:100370008081E091C201F091C30182FD12C09081A1
:100380008091C5018F5F8F732091C601821751F054
:10039000E091C501F0E0E455FE4F958F8093C501D3
:1003A00001C08081FF91EF919F918F912F910F90CC
:1003B0000FBE0F901F9018951F93CF93DF93282F98
:1003C00030E0F901EE58FF4F8491F901E255FF4FFB
:1003D000D491F901E656FF4FC491CC23C9F0162FF2
:1003E00081110E945901EC2FF0E0EE0FFF1FEA5738
:1003F000FF4FA591B4918FB7F894111105C09C914E
:10040000ED2FE095E92302C0EC91ED2BEC938FBF2B
:10041000DF91CF911F910895CF93DF9390E0FC017E
:10042000E255FF4F2491FC01E656FF4F849188234B
:1004300061F190E0880F991FFC01E859FF4FC591C9
:10044000D491FC01EA57FF4FA591B491611109C005
:100450009FB7F8948881209582238883EC912E237E
:100460000BC0623061F49FB7F8943881822F809579
:1004700083238883EC912E2B2C939FBF06C08FB7CC
:10048000F894E8812E2B28838FBFDF91CF910895B8
:100490003FB7F8948091540190915501A091560175
:1004A000B091570126B5A89B05C02F3F19F00196C2
:1004B000A11DB11D3FBFBA2FA92F982F8827820FEA
:1004C000911DA11DB11DBC01CD0142E0660F771F3A
:1004D000881F991F4A95D1F708952FB7F894609116
:1004E00050017091510180915201909153012FBFA1
:1004F0000895DC01ED91FD91BD010190F081E02DA9
:1005000040E0099591E0811190E0892F08952091B4
:10051000AA013091AB012817390771F49091A80115
:100520008091A901981741F0E091A801F0E0E95904
:10053000FE4F808190E008958FEF9FEF089508951A
:100540001F93CF93DF93DC015C962D913C915D97D7
:100550002115310539F481E090E013969C938E9338
:1005600012973DC05196ED91FC91529750969C91F7
:100570005097892F80951FB75E964C915E9741FBEF
:10058000772770F941FD6095F8944081772311F049
:10059000492B01C048234083E9012197F1F748E046
:1005A000508160FF02C0592B01C058235083E901DC
:1005B0002197F1F76695415099F7772321F09081C3
:1005C0008923808303C08081982B90831FBF5C9612
:1005D0008D919C915D970197F1F721E030E0C90181
:1005E000DF91CF911F9108952091AA013091AB0125
:1005F0002817390771F48091A9012091A80190E092
:10060000805C9F4F821B910960E470E00E94110D95
:10061000089580E090E008952091AA013091AB0107
:1006200028173907B9F49091A8018091A90198176A
:1006300089F0E091A801F0E0E959FE4F8081209116
:10064000A80130E02F5F3F4F2F7333272093A8017D
:1006500090E008958FEF9FEF08951F920F920FB6CD
:100660000F9211242F933F938F939F93AF93BF9338
:100670008091500190915101A0915201B09153018C
:100680003091A70123E0230F2D3720F40196A11DFF
:10069000B11D05C026E8230F0296A11DB11D2093B0
:1006A000A7018093500190935101A0935201B09300
:1006B00053018091540190915501A0915601B09140
:1006C00057010196A11DB11D8093540190935501CE
:1006D000A0935601B0935701BF91AF919F918F9115
:1006E0003F912F910F900FBE0F901F901895089576
:1006F0008EBD00000DB407FEFDCF8EB508958CBDF4
:100700009DBD08951F93CF93DF93EC01162F83E5D2
:1007100090E00E947F0360E08E850E94DC01812FC3
:1007200080680E94780380E00E947803182F61E0BF
:100730008E850E94DC01812FDF91CF911F9108955A
:10074000EF92FF921F93CF93DF931F92CDB7DEB747
:100750007C01162F83E590E049830E947F0360E0CF
:10076000F70186850E94DC01812F0E947803498170
:10077000842F0E94780361E0F70186850F90DF9156
:10078000CF911F91FF90EF900C94DC01AF92BF923C
:10079000CF92EF92FF920F931F93CF93DF9300D0EE
:1007A00000D01F92CDB7DEB75C0182E08D8340E0C0
:1007B00064E2C5010E94A00340E066E2C5010E9418
:1007C000A00346E268E4C5010E94A00386E28C8390
:1007D0008D81823038F16CE1C5010E948203482F7F
:1007E0004F776CE1C5010E94A00387E08B83C12C89
:1007F000CE0103967C018E010B5F1F4F9E012F5F80
:100800003F4F41E0BE016C5F7F4FC5010E949207E0
:1008100081110BC08D81823039F481E09B8191116F
:1008200004C008C084E001C081E091E0823019F08A
:1008300090E001C091E0892F0F900F900F900F90E2
:100840000F90DF91CF911F910F91FF90EF90CF907C
:10085000BF90AF900895CF92DF92EF92FF920F93E7
:100860001F93CF93DF93EC016B01142F790140E0CC
:1008700062E00E94A00344E06AE0CE010E94A0036F
:1008800040E864E1CE010E94A003A601612FCE01E1
:100890000E94570743E062E0CE010E94A00308E8EF
:1008A00013E16AE0CE010E94820382FF13C040E0A0
:1008B00062E0CE010E94A00364E4CE010E948203A4
:1008C000F701808362E4CE010E948203F7018183F5
:1008D00080E004C00150110921F783E0DF91CF913E
:1008E0001F910F91FF90EF90DF90CF9008952F927E
:1008F0003F924F925F926F927F928F929F92AF92B0
:10090000BF92CF92DF92EF92FF920F931F93CF93FC
:10091000DF93CDB7DEB72D970FB6F894DEBF0FBECD
:10092000CDBF413508F013C1342E4B015C016CE1A1
:100930000E948203482F4F776CE1C5010E94A003FB
:100940002224239444244394512C22E0221691F033
:1009500033E02316E1F041E02412FDC083E98983EE
:100960003320D1F081E0F4019081953008F480E0EB
:10097000D12C17C085E98983332081F081E0F4010F
:100980009081983008F480E043E0D42E0AC087E9D3
:10099000898336E0D32E04C0D12C02C023E0D22EAE
:1009A00080E0532DF8EFDF9E500D112457FD50E0ED
:1009B000882321F098E89B8343E001C042E021E0D6
:1009C000952F977009F420E0952F9595959595951D
:1009D000290F29F4882309F498C0585F96C0811123
:1009E00002C094E001C093E0291708F4922F20E0A0
:1009F00030E06D2D70E0E42FE20FA1E0B0E0AC0F2D
:100A0000BD1FAE0FB11DF901E60FF71FE80DF91D6F
:100A1000E181EC932F5F3F4F291768F3DBCF811102
:100A2000E6C050320CF099C050E220E72A839C8146
:100A30008B8189279D8189279E8189278F839E01AC
:100A4000285F3F4F47E0BE016F5F7F4FC5015D8765
:100A50000E942B045D858111CAC01B8633E03A8752
:100A6000CE0107963C0179E0CB844C2D4295407F26
:100A70004C0D6AE1C5015D877C870E94A0039E0141
:100A8000255F3F4F79018E01065F1F4F93017C85E3
:100A9000472FBE016F5F7F4FC5010E9492075D85A2
:100AA000823009F0BCCF6CE1C5010E9482035D85F4
:100AB00085FD4FC08F7109F480E2282F30E0452F6B
:100AC000550F550B421753070CF045C0582FC9015D
:100AD00001978770992725952595259531E0320F47
:100AE00021E0009709F420E0230FE1E0F0E0EC0FB3
:100AF000FD1FE20FF11D920102C0220F331F8A95E4
:100B0000E2F7C9019081892B808350320CF08DCFA0
:100B1000952F97709B87252F25952595259582E004
:100B2000820F392FE0E18E9F300D11243A8371E05E
:100B3000911101C070E0780F66246394712C6C0EE3
:100B40007D1E680E711C87E0821B8A878DCF86E030
:100B50004EC082E04CC085E04AC08B81883809F0E5
:100B600043C033E023E080E090E06D2D70E0FC01B5
:100B7000E60FF71FE80DF91D432F480FA1E0B0E085
:100B8000AC0FBD1FA40FB11D4C914183019682177C
:100B900070F38A85833021F58B85811121C09E01F8
:100BA0002D5F3F4F41E0B301C5010E942B0481112D
:100BB0001EC09B81F3018181981314C09C818281A6
:100BC000981310C0808182FF02C02394BECEF4012E
:100BD0008387822D880F280E2394208280E007C00F
:100BE00081E005C087E003C032E024E0BCCF2D9651
:100BF0000FB6F894DEBF0FBECDBFDF91CF911F912E
:100C00000F91FF90EF90DF90CF90BF90AF909F90AB
:100C10008F907F906F905F904F903F902F900895AE
:100C20001F920F920FB60F9211242F933F934F9361
:100C30005F936F937F938F939F93AF93BF93EF9344
:100C4000FF93E091AA01F091AB01309709F451C0F4
:100C5000968DA685B785858591FF04C09C918923D3
:100C600029F447C09C91892309F043C0A389B48922
:100C70009C918589809589238C9386899789019792
:100C8000F1F7608D718DA685B785558538E020E038
:100C9000CB010197F1F7822F90E095958795282F4A
:100CA0004C91452309F02068315091F7868D81FDE4
:100CB00020958091A90190E001968F73992730913A
:100CC000A801381749F0A091A901B0E0A959BE4F79
:100CD0002C938093A90103C0868D8160868F828DBD
:100CE000938D0197F1F7A389B4899C918589892B0C
:100CF0008C93FF91EF91BF91AF919F918F917F91D5
:100D00006F915F914F913F912F910F900FBE0F9078
:100D10001F901895E091AA01F091AB01E817F9072F
:100D200069F4A389B4899C918589809589238C93E2
:100D30001092AB011092AA0181E0089580E008951D
:100D4000CF92DF92EF92FF920F931F93CF93DF9397
:100D50006C017A018B01C0E0D0E0CE15DF0589F08F
:100D6000D8016D918D01D601ED91FC910190F0813A
:100D7000E02DC6010995892B11F47E0102C0219650
:100D8000ECCFC701DF91CF911F910F91FF90EF90B2
:100D9000DF90CF9008958F929F92AF92BF92CF92A3
:100DA000DF92EF92FF920E9448024B015C0182E3C6
:100DB000C82ED12CE12CF12C0E944802DC01CB0181
:100DC00088199909AA09BB09883E9340A105B10574
:100DD00058F021E0C21AD108E108F10888EE880E27
:100DE00083E0981EA11CB11CC114D104E104F104DC
:100DF00019F7FF90EF90DF90CF90BF90AF909F904A
:100E00008F9008958091BB029091BC02892B31F1A3
:100E10008091AA019091AB0122E0813A9207F1F012
:100E2000009711F00E948A068091BF028E7F809306
:100E3000BF021092A9011092A80181EA92E090935A
:100E4000AB018093AA01E091B402F091B5029081C8
:100E50008091B602892B808381E0089580E0089517
:100E60008F929F92AF92BF92CF92DF92EF92FF92BA
:100E70006B017C010E946D024B015C01C60ED71E06
:100E8000E81EF91E0E946D02681579058A059B050A
:100E900028F0C616D706E806F906A0F7FF90EF90EF
:100EA000DF90CF90BF90AF909F908F900895CF929A
:100EB000DF92EF92FF920F931F93CF93DF9300D0B7
:100EC000CDB7DEB78C01F62E83E590E049835A83D7
:100ED0000E947F0360E0F80186850E94DC0182E1C8
:100EE0000E9478034981E42EC42E5A81D52E8C2D80
:100EF0008E198F1530F4F60181916F010E947803ED
:100F0000F6CF61E0F80186850E94DC010F900F901A
:100F1000DF91CF911F910F91FF90EF90DF90CF90D5
:100F20000C9477036F927F928F929F92AF92BF92B1
:100F3000CF92DF92EF92FF920F931F93CF93DF93A5
:100F4000EC014B01D42E59013801E114F10419F0E0
:100F5000F701808101C080E0182FF0E1CF9E100DD5
:100F6000112440E062E0CE010E94A0034FE768E058
:100F7000CE010E94A00340E864E1CE010E94A003DC
:100F8000A4016D2DCE010E945707412F6AE1CE01C9
:100F90000E94A0034CE062E0CE010E94A0036AE13F
:100FA000CE010E948203482F40686AE1CE010E9470
:100FB000A00300ED17E068E0CE010E948203982FA5
:100FC000907339F480FD03C001501109A1F783E04B
:100FD00071C06CE0CE010E948203982E837109F0EB
:100FE00068C0A114B10409F45CC06114710409F46F
:100FF00058C064E1CE010E948203182FF301808162
:10100000811708F452C01083112309F440C083E50E
:1010100090E00E947F0360E08E850E94DC0182E9FF
:101020000E947803CC20A9F08FEF90E09C0102C0D1
:10103000220F331FCA94E2F7690182E90E94780304
:101040008C21C094F5019081C922C82AC08201E098
:1010500001C000E01150402F50E0011750F465012D
:10106000C40ED51E82E90E947803F60180830F5FCB
:10107000F2CF8501040F151F80E00E947803F8016C
:10108000808361E08E850E94DC010E94770368E125
:10109000CE010E9482038770E114F10411F0F70180
:1010A000808393FC04C080E005C084E003C082E03C
:1010B00001C081E0DF91CF911F910F91FF90EF90E0
:1010C000DF90CF90BF90AF909F908F907F906F9068
:1010D00008956115710579F0FB0101900020E9F791
:1010E0003197AF01461B570BDC01ED91FC9102805B
:1010F000F381E02D099480E090E008954F925F9293
:101100006F927F92EF92FF920F931F93CF93DF9393
:10111000CDB7DEB7A1970FB6F894DEBF0FBECDBF37
:101120007C01FA01CB0119A2223008F42AE08E01D9
:101130000F5D1F4F422E512C612C712CBF01A3015A
:1011400092010E94440DF901CA01015011096A304F
:1011500014F4605D01C0695CD8016C93232B242BCF
:10116000252B61F7B801C7010E946908A1960FB647
:10117000F894DEBF0FBECDBFDF91CF911F910F91CD
:10118000FF90EF907F906F905F904F9008957894CC
:1011900084B5826084BD84B5816084BD85B582607C
:1011A00085BD85B5816085BD80916E00816080932D
:1011B0006E00109281008091810082608093810096
:1011C00080918100816080938100809180008160A6
:1011D000809380008091B10084608093B100809101
:1011E000B00081608093B00080917A008460809329
:1011F0007A0080917A00826080937A0080917A00F0
:10120000816080937A0080917A00806880937A0070
:101210001092C10010928D0210928E0210928F02D5
:101220001092900210924B0210924C0210924D02BA
:1012300010924E0268EB7BE080E090E00E94300765
:101240008CEA91E090938C0280938B02E091BC0138
:10125000F091BD0182E08083E091B801F091B90185
:101260001082E091BA01F091BB0180E1808310927D
:10127000C401E091C001F091C10186E08083E0915A
:10128000BE01F091BF01808180618083E091BE0149
:10129000F091BF01808188608083E091BE01F09170
:1012A000BF01808180688083E091BE01F091BF0121
:1012B00080818F7D80830E946D0260934B027093CA
:1012C0004C0280934D0290934E026AE271E080914D
:1012D0008B0290918C020E9469086AE070E080E0C5
:1012E00090E00E94300781E080935F021092BC0280
:1012F0001092BB021092BA021092B9021092B80278
:101300001092B7028DE991E09093BE028093BD02E6
:101310009091AD02963108F057C02DEB30E030933C
:10132000B8022093B7022BE931E03093BA02209340
:10133000B9022CE231E03093BC022093BB02209131
:101340006800983050F031E09E3008F430E081E0E1
:1013500001C0880F3A95EAF701C084E0822B8093A0
:101360006800983038F09E3040F0963148F020E028
:1013700030E008C02DE630E005C02BE630E002C0CA
:101380002CE630E03093B5022093B402983030F46C
:1013900081E001C0880F9A95EAF70EC0292F30E04E
:1013A0009E3018F42850310902C02E50310981E0D6
:1013B00001C0880F2A95EAF78093B6028091BD029A
:1013C0009091BE020197F1F70E9402070E94020766
:1013D000CFB7F89480915801811127C0E4EAF0E07A
:1013E0008491E8EBF0E09491E82FF0E0EE0FFF1F1E
:1013F000E859FF4FA591B491EC91E92321F461E004
:101400008AE00E94DC0161E08AE00E940C028CB557
:1014100080618CBD8CB580648CBD61E08DE00E94E4
:101420000C0261E08BE00E940C02809158018F5FFA
:1014300080935801CFBF61E080919F020E940C020F
:1014400061E080919F020E94DC018091A0028F3FA9
:1014500049F44FE062E081E992E00E94A0030E941B
:10146000CB0625C061E00E940C022091A00230E072
:10147000F901EE58FF4F8491F901E255FF4FF490C6
:10148000F901E656FF4FC491CC2309F4E1C1811163
:101490000E945901EC2FF0E0EE0FFF1FE057FF4FC5
:1014A000A591B491EC91EF2109F4D2C1D2CF62E0C1
:1014B00081E992E00E94820384FDF9CF40E064E27A
:1014C00081E992E00E94A00340E066E281E992E0B7
:1014D0000E94A00346E268E481E992E00E94A00332
:1014E00040E864E581E992E00E94A00349EA66E5EC
:1014F00081E992E00E94A00343E068E581E992E07F
:101500000E94A00348EE6AE581E992E00E94A003F0
:1015100040E46AE281E992E00E94A0034DE362E2C6
:1015200081E992E00E94A00368E281E992E00E94D2
:101530008203982F9370933039F0482F436068E20C
:1015400081E992E00E94A0038FEF8093590180937C
:101550005A0180935B0180935C0180935D018093CD
:101560005E0184EF882E99249394A12CB12C0E94C3
:101570006D02672B682B692B41F40E946D0262306B
:1015800071058105910508F40BC10E946D026093FD
:101590006301709364018093650190936601C0902C
:1015A0005F01D0906001E0906101F09062016C15E4
:1015B0007D058E059F0540F460935F017093600187
:1015C0008093610190936201C0905F01D0906001AF
:1015D000E0906101F09062019B01AC012C193D0982
:1015E0004E095F0969017A013AEFC316D104E1049B
:1015F000F10408F4D5C060935F017093600180939B
:101600006101909362018092570290925802A092D9
:101610005902B0925A0210925B0210925C02109230
:101620005D0210925E0280914F0290915002A09153
:101630005102B09152028093530290935402A093AE
:101640005502B09356020E946D0260934F02709350
:10165000500280935102909352020E946D02609357
:101660004B0270934C0280934D0290934E020E9465
:101670006D026B017C016CE371E080918B029091B3
:101680008C020E9469082AE041E050E060E070E0CE
:1016900080918B0290918C020E947E0863E471E03D
:1016A00080918B0290918C020E9469082AE0B70118
:1016B000A60180918B0290918C020E947E0865E4C5
:1016C00071E080918B0290918C020E946908809158
:1016D0004F0290915002A0915102B0915202B70175
:1016E000A601481B590B6A0B7B0B2AE080918B02E9
:1016F00090918C020E947E0865E471E080918B02DB
:1017000090918C020E94690840914F0250915002C2
:101710006091510270915202809153029091540253
:10172000A0915502B0915602481B590B6A0B7B0BD6
:101730002AE080918B0290918C020E947E0867E4DF
:1017400071E080918B0290918C020E9469080E9446
:101750006D02AB01BC012AE080918B0290918C025A
:101760000E947E08E0908B02F0908C0269E471E0A8
:10177000C7010E94690869E371E0C7010E94690816
:1017800065E070E080E090E00E9430070E946D020A
:1017900060934F02709350028093510290935202D3
:1017A00081E992E00E94C603882309F44EC081E9D2
:1017B00092E00E947902882309F447C0C090940205
:1017C000D0909502E0909602F090970220E1B70148
:1017D000A6018CEA91E00E947E0869E371E08CEA40
:1017E00091E00E94690840EDC4164FE9D40643EF2A
:1017F000E4064BE1F40601F158F482E4C8168CEFDC
:10180000D8068EE8E8068DE0F806D1F462E019C04B
:1018100020E5C2162DE2D20628E5E20620E8F2060F
:1018200069F03CEDC31639E9D30632ECE3063BED33
:10183000F30631F463E005C061E003C064E001C079
:1018400060E081EA92E00E94A0020E944F018FCEE8
:1018500061E08091A0020E94DC010E94CB062ECEA6
:101860008EE191E09093A2028093A10281EA92E03E
:101870000C948A061092AF011092AE0188EE93E0AC
:10188000A0E0B0E08093B0019093B101A093B201C9
:10189000B093B30124E031E03093AD012093AC016B
:1018A00025EC30E03093B9012093B80124EC30E00E
:1018B0003093BB012093BA0120EC30E03093BD019E
:1018C0002093BC0121EC30E03093BF012093BE0196
:1018D00022EC30E03093C1012093C00126EC30E0CF
:1018E0003093C3012093C2011092C5011092C6012A
:1018F0001092C7011092C80110924F02109250022C
:1019000010925102109252021092530210925402FD
:1019100010925502109256021092570210925802DD
:101920001092590210925A0210925B0210925C02BD
:1019300010925D0210925E021092A4021092A30215
:101940008093A5029093A602A093A702B093A80249
:101950008EE191E09093A2028093A1021092B802CE
:101960001092B7021092BA021092B9021092BC0201
:101970001092BB021092BE021092BD026091BF0293
:101980006E7F6D7F6093BF026695617081E068270E
:1019900082E00E94DC0161E082E00E940C02E0EB48
:1019A000F0E0E491E093B102ECE9F0E0E491F0E0E2
:1019B000EE0FFF1FEA57FF4F859194919093B3026A
:1019C0008093B20260E083E00E940C028091BF022B
:1019D00081FD04C061E083E00E94DC0183E080932C
:1019E000AD02E1EBF0E0E491E093AE02EDE9F0E06E
:1019F000E491F0E0EE0FFF1FE057FF4F85919491C7
:101A00009093B0028093AF0284E191E090939202B0
:101A1000809391028AE080939F0289E08093A002E4
:101A2000089597FB072E16F4009407D077FD09D090
:101A30000E94250D07FC05D03EF4909581959F4F9F
:101A40000895709561957F4F0895AA1BBB1B51E1C6
:101A500007C0AA1FBB1FA617B70710F0A61BB70B1E
:101A6000881F991F5A95A9F780959095BC01CD01C3
:101A70000895EE0FFF1F0590F491E02D099481E089
:101A800090E0F8940C94660DA1E21A2EAA1BBB1BE1
:101A9000FD010DC0AA1FBB1FEE1FFF1FA217B3073A
:101AA000E407F50720F0A21BB30BE40BF50B661F50
:101AB000771F881F991F1A9469F760957095809514
:101AC00090959B01AC01BD01CF01089510E0C2E6E5
:101AD000D0E004C0FE010E94390D2196C336D10723
:061AE000C9F7F894FFCFE6
:101AE60000000000E600A006AF008D00A1002D0159
:101AF600000000007704C603790200000000A0027F
:101B0600A006F4020C0387029F02564D4450565F0E
:101B1600317C315F564D4450560D0A00564D4450A7
:101B2600455F003A323A007C005F564D445045000E
:00000001FF
